:020000040800F2
:100000008804002045010008731200087D110008D3
:1000100071120008B1010008491400080000000036
:10002000000000000000000000000000771200083F
:10003000B3010008000000007512000879120008E2
:100040005F0100085F0100085F0100085F01000810
:100050005F0100085F0100085F0100085F01000800
:100060005F0100085F0100085F0100085F010008F0
:100070005F0100085F0100085F0100085F010008E0
:100080005F0100085F0100085F0100085F010008D0
:100090005F0100085F0100085F0100085F010008C0
:1000A0005F0100085F0100085F0100085F010008B0
:1000B0005F0100085F0100085F0100085F010008A0
:1000C0005F0100085F0100085F0100085F01000890
:1000D0005F0100083D1400085F0100085F0100088F
:1000E0005F0100085F0100085F0100085F01000870
:1000F0005F0100085F0100085F0100085F01000860
:100100005F0100085F0100085F0100085F0100084F
:100110005F0100085F0100085F0100085F0100083F
:100120005F0100085F0100085F0100085F0100082F
:10013000DFF80CD000F02AF80048004789140008C6
:10014000880400200648804706480047FEE7FEE78F
:10015000FEE7FEE7FEE7FEE7FEE7FEE7FEE7FEE777
:10016000C912000831010008D2B201E000F8012BE9
:10017000491EFBD270470022F6E710B513460A4627
:1001800004461946FFF7F0FF204610BD064C074D08
:1001900006E0E06840F0010394E807009847103457
:1001A000AC42F6D3FFF7C8FFF014000810150008A2
:1001B000FEE770477047000000B58BB0002000904C
:1001C0000190029003900490059006900790012002
:1001D00008906946024800F069F80BB000BD0000C5
:1001E0001C000020F0B590F820500468A468012D90
:1001F00005D0022D03D0416A41F4802153E014F070
:10020000406F01D1E5004BD5C4F30164022C03D942
:10021000416A41F4000146E00125A5401D608D685A
:100220004FF4C0739DB1CE6835434E6845EAC605AC
:10023000066803EB0417F5514FF4C275076805EB28
:1002400004150E697E51097D012905D009E00E884B
:10025000CD6845EA4655EBE701684E5946F480768D
:100260004E511179D2F805504FF4C67641EA052572
:10027000016806EB04168D511178D2F801204FF475
:10028000C47541EA0221026805EB0415515100686A
:1002900003EB0411425842F0010242500020F0BD2D
:1002A000416A41F4001141620120F0BD10B590F89F
:1002B00020300268012B07D0022B05D0416A41F49F
:1002C00080214162012010BDD2F8000240F00100FF
:1002D000C2F80002087D00F01F0301209840D2F808
:1002E0001C328343C2F81C32CB69B3B9D2F80C324A
:1002F0008343C2F80C328C894B6864F31F434C690A
:1003000002EBC404C4F840320C890B6864F31F4349
:100310004C6902EBC404C4F84432CB69012B16D1FA
:10032000D2F80C320343C2F80C320C884B6864F3E9
:100330001F434C6902EBC404C4F840320C89CB68FB
:1003400064F31F434C6902EBC404C4F844328B6964
:10035000002BD2F804320FD053EA0003C2F8043263
:100360000B69002BD2F8143208D00343C2F81432C0
:10037000096A012904D008E08343EFE78343F5E7E6
:10038000D2F81C120143C2F81C12D2F8000220F06D
:100390000100C2F80002002010BD70B5040003D0B7
:1003A00094F8200010B104E0012070BD204600F058
:1003B00081F82068016821F00201016000F088FAEC
:1003C0000546052604E000F083FA401B0A2811D8F0
:1003D000206840688007F6D42068016841F0010178
:1003E000016000F075FA05460BE000F071FA401B61
:1003F0000A2806D9606A40F40030606284F8206000
:10040000D2E720684068C007EFD0207E012820682E
:1004100001683DD021F080010160607E01282068E4
:10042000016838D021F040010160A07E01282068D9
:10043000016833D021F020010160E07E01282068AE
:1004400001682ED041F010010160207F0128206852
:10045000016829D021F008010160607F012820682F
:10046000016824D021F004010160D4E902010843AD
:10047000D4E90412114308436168491E0843216806
:10048000C86100206062012084F82000002070BD57
:1004900041F08001C0E741F04001C5E741F0200193
:1004A000CAE721F01001CFE741F00801D4E741F09D
:1004B0000401D9E710B586B00021009101910291A5
:1004C000039100681349884222D11348C16941F061
:1004D0000071C161C16901F000710491816941F04D
:1004E0000401816180690D4C00F0040004904FF418
:1004F000006000906946204600F0E8F8A0140090E3
:1005000002200190032003906946204600F0DEF8A7
:1005100006B010BD00640040001002400008014019
:1005200070B5044690F82000012804D0606A40F4B9
:100530000020606218E0022084F820002068016832
:1005400021F00101016000F0C3F905460EE000BF93
:1005500000F0BEF9401B0A2808D9606A40F4003058
:100560006062052084F82000012070BD206840688A
:10057000C007EDD1606270BD2DE9F05F90F82110E9
:100580000024022903D004218163012485E001684D
:100590000A6822F00E020A6001680A6822F001026D
:1005A0000A603F4E3E4FB215DFF8F4C0DFF8F0901E
:1005B000DFF8ECA0DFF8E8B0DFF8E4E00168783FAE
:1005C00013011502ACF1640CA9F15009AAF13C0A1F
:1005D000ABF1280BAEF1140E4FF48018B14227D9BD
:1005E000B9420ED0614512D049451DD0514518D0B1
:1005F000594518D0714501D1424615E0294EB14206
:1006000001D1012210E0274E1436B14201D110224F
:100610000AE0244E2836B14206D0224A3C329142AA
:1006200001D11A4600E02A461E49091F0A602BE044
:10063000B94213D0614517D0494522D051451DD04C
:1006400059451DD0714501D142461AE0B14202D14F
:100650004FF0807215E0134EB14201D1012210E03B
:10066000104E1436B14201D110220AE00D4E283648
:10067000B14206D00B4A3C32914201D11A4600E009
:100680002A46074980394A60012180F8211000215B
:1006900080F82010416B01B188472046BDE8F09FEB
:1006A000800002400804024070B5044600F010F9D2
:1006B0000546601C02D004480078044400F008F9A4
:1006C000401BA042FAD370BD0C0000202DE9F84F6A
:1006D000DFF8C891002409F1040A0AF1040B23464B
:1006E0000F270BF1040ED1E00125A54006EA050213
:1006F000AA4276D1DFF8A8C14E68A6EB0C08664581
:100700002BD00DDC032E34D005DC36B3012E19D0EE
:10071000022E2FD11BE0112E16D0122E2AD119E055
:10072000B8F5881F19D006DCB8F5803F15D0B8F5AC
:10073000801F1FD111E0B8F5001F0ED0B8F5041FBF
:1007400018D10AE0CB6815E0CB681B1D12E0CB681E
:1007500008330FE0CB680C330CE08B682BB1012B16
:100760004FF0080303D0456104E0042302E0056173
:1007700000E00023FF2A01D8064601E000F104064C
:100780004FEA840501D9A5F12005D6F8008007FAC3
:1007900005FC28EA0C0803FA05F548EA0508C6F83E
:1007A00000804D68ED0070D53E4DAE6946F0010603
:1007B000AE61AD6924F0030605F0010500953A4DE0
:1007C00006EB050CDCF80850A607360F07FA06F80A
:1007D00025EA0805DFF8D480404503D14FF0000832
:1007E00025E052E0DFF8C880404502D14FF0010813
:1007F0001DE0DFF8C080404502D14FF0020816E04E
:10080000DFF8B480404502D14FF003080FE0DFF875
:10081000AC80404502D14FF0040808E0DFF8A0802A
:10082000404502D14FF0050801E04FF0060808FAF4
:1008300006F848EA0508CCF808804D68D9F8006049
:10084000ED034D4601D5164300E096432E604D68FA
:10085000DAF80060AD03554601D5164300E0964333
:100860002E604D68DBF80060ED025D4601D5164351
:1008700000E096432E604D68DEF80060AD027546DC
:1008800001D5164300E096432E60641C0A681646A4
:10089000E2407FF429AFBDE8F88F0000000401407A
:1008A000000011100010024000000140000801404B
:1008B000000C0140001001400014014000180140EC
:1008C000001C01400AB1016170470904FBE7000008
:1008D00001488068704700000C00002002488168D1
:1008E00002781144816070470C000020074810B561
:1008F000016841F010010160032000F075F800204C
:1009000000F006F800F024F8002010BD002002409E
:1009100070B50D4D04464FF47A712878B1FBF0F0B4
:100920000A490968B1FBF0F000F0F0FA48B9102C60
:1009300007D200222146501E00F036F800206C60DD
:1009400070BD012070BD00000C00002018000020C8
:100950000C4808B5816941F001018161816901F0AC
:1009600001010091C16941F08051C161C06900F08D
:10097000805000900448416821F0E06141F000712E
:10098000416008BD0010024000000140002809DB62
:1009900000F01F02012191404009800000F1E02099
:1009A000C0F8001170470000F0B40E4B1B680C46F5
:1009B000C3F30223C3F10705042D00D90425191D33
:1009C000072901D2002300E0DB1E012606FA05F10B
:1009D000491E214099409E40761E16403143F0BC8E
:1009E00000F033BD0CED00E0064900F00702086896
:1009F0004FF6FF03184040EA0220034A1043086004
:100A0000704700000CED00E00000FA052DE9F0470A
:100A10000F46050061D0434E306800F00700B84231
:100A200009D2306820F0070038433060306800F0A9
:100A30000700B84251D128683B4C810712D54007C6
:100A400003D5606840F4E06060602878000703D553
:100A5000606840F4605060606068A96820F0F00051
:100A6000084360602878C00728D06868012810D043
:100A70002168022810D0890700292EDA616821F048
:100A8000030101436160FFF723FF804641F288398B
:100A90000DE021688903EFE78901EDE7FFF718FF13
:100AA000A0EB0801494502D90320BDE8F087606842
:100AB000696800F00C00B0EB810FEFD1306800F0F6
:100AC0000700B8420BD9306820F007003843306087
:100AD000306800F00700B84201D00120E5E728782F
:100AE000400705D56068E96820F4E060084360606D
:100AF0002878000706D56068296920F4605040EA2C
:100B0000C100606000F038F86168084AC1F3031161
:100B1000515CC8400649086006480068FFF7F8FEC7
:100B20000020C2E70020024000100240D814000854
:100B3000180000201000002004480549006849689A
:100B4000044AC1F30221515CC840704718000020DC
:100B500000100240E814000804480549006849688C
:100B6000044AC1F3C221515CC840704718000020FC
:100B700000100240E814000813A185B00FC98DE8E9
:100B80000F0015A0154A00680490516801F00C0090
:100B9000042804D0082804D0114805B07047114833
:100BA000FBE7C1F38343C9031DF8030009D551686E
:100BB00004AAC1F34041515C0A4A5043B0FBF1F032
:100BC000EBE709494843E8E702030405060708097B
:100BD0000A0B0C0D0E0F1010010200000010024055
:100BE00000127A000024F40000093D002DE9F84FBE
:100BF000040070D02078C04DC00749D06868C0F3A9
:100C00008100012807D06868C0F38100022809D15B
:100C10006868C00306D52868800339D56068002855
:100C2000E7D035E06068B0F5803F0BD010B1B0F58B
:100C3000A02F11D0286820F480302860286820F484
:100C4000802002E0286840F480302860606890B11D
:100C5000FFF73EFE06460AE0286840F48020286040
:100C6000F0E700BFFFF734FE801B642873D82868C4
:100C70008003F7D50CE0FFF72BFE064605E000BF2A
:100C8000FFF726FE801B6428F0D828688003F7D47D
:100C900020789A4E80074FF001094FF0000839D5AF
:100CA000686810F00C0F07D06868C0F38100022854
:100CB00009D16868C00306D42868800714D5206964
:100CC000012808D110E02069B0B1C6F80090FFF704
:100CD000FFFD074605E00AE1FFF7FAFDC01B022809
:100CE000C4D828688007F7D52868616920F0F80023
:100CF00040EAC10028600DE0C6F80080FFF7E8FD7B
:100D0000074604E0FFF7E4FDC01B022823D828684B
:100D10008007F7D4207800072CD57948A169D9B18C
:100D2000C0F80090FFF7D4FD074604E0FFF7D0FDC0
:100D3000C01B02280FD8686A8007F7D571484FF4A6
:100D4000FA510068B0FBF1F0009000BF0098411E1E
:100D50000091FAD20EE080E0C0F80080FFF7B8FD05
:100D6000074604E0FFF7B4FDC01B022875D8686A87
:100D70008007F7D42078400760D5E8690027C000D5
:100D800008D4E86940F08050E861E869012700F084
:100D9000805000905C480168C90513D401688346FF
:100DA00041F480710160FFF793FD824606E000BFC9
:100DB000FFF78EFDA0EB0A0064284ED8DBF8000098
:100DC000C005F5D5E06801280AD008B1052813D080
:100DD000286A20F001002862286A20F0040002E05E
:100DE000286A40F001002862E06841F2883B98B12F
:100DF000FFF76EFD82460BE0286A40F0040028628F
:100E0000EEE700BFFFF764FDA0EB0A0159455AD891
:100E1000286A8007F6D50CE0FFF75AFD824605E008
:100E2000FFF756FDA0EB0A0159454CD8286A800708
:100E3000F6D41FB1E86920F08050E861E06988B31A
:100E40006968C1F38101022944D00228C6F8608094
:100E500004D0FFF73DFD044638E034E0FFF738FDED
:100E6000074604E0FFF734FDC01B02282BD8286892
:100E70008001F7D4206AB0F5803F05D16868A16889
:100E800020F4003008436860D4E908010843696829
:100E900021F4741108436860C6F86090FFF718FDEC
:100EA000044606E025E000BFFFF712FD001B022804
:100EB00009D828688001F7D51BE000BFFFF708FDBF
:100EC000001B022802D90320BDE8F88F28688001A2
:100ED000F4D40EE00128F7D06868226A00F480316B
:100EE000914204D1616A00F47010884201D001205F
:100EF000EAE70020E8E7000000100240000042425C
:100F000080044242180000200070004010B5401ECE
:100F1000B0F1807F01D3012010BD4FF0E02460616B
:100F20000F21601700F091FA0020A06107202061D6
:100F3000002010BD7047000070B5026804461068BC
:100F4000D168536910F00F0F52D003F0010501F47E
:100F500090762E435FD0C20705D0CA0503D5E26B59
:100F600042F00102E263420705D5DA0703D0E26BE3
:100F700042F00202E263820705D5DA0703D0E26B92
:100F800042F00402E263020707D501F020022A437F
:100F900003D0E26B42F00802E263E26B002A33D036
:100FA000800604D5880602D5204600F0A4F9206802
:100FB0004069E16BC0F38010090700D428B32046D4
:100FC00000F08BF92068416949061AD5416921F082
:100FD00040014161606BA0B12D494163606BFFF737
:100FE000CBFA002810D0606B416BBDE87040084719
:100FF000830610D58B060ED52046BDE8704000F064
:101000007AB92046FFF796FF70BD2046FFF792FFA2
:101010000020E06370BD03062BD50B0629D594F89C
:1010200039002128F6D1A068B0F5805F01D1206990
:10103000B0B1206A411C2162216800784860E08CD0
:10104000401E0004000CE084E4D12068C16821F057
:101050008001C1602068C16841F04001C16070BD7D
:10106000206A0088C0F308005060206A801C20625B
:10107000E5E74006F3D54806F1D5D168204621F0D2
:101080004001D160202184F8391000F076F870BD5D
:10109000CB12000870B5040004D094F83900002584
:1010A00010B106E0012070BD84F83850204600F0F1
:1010B00023F8242084F839002068C16821F4005105
:1010C000C160204600F05EF92068016921F490417A
:1010D00001612068416921F02A0141612068C168ED
:1010E00041F40051C160E563202084F8390084F8A0
:1010F0003A00002070BD000030B585B00024009497
:101100000194029403940068184988422CD118482D
:10111000816941F480418161816901F480410491D8
:10112000816941F0040181618069124D00F0040081
:1011300004904FF40070009002200190032003906F
:1011400069462846FFF7C2FA2815CDE9000469462A
:1011500028460294FFF7BAFA002211462520FFF72D
:1011600023FC2520FFF712FC05B030BD00380140FC
:10117000001002400008014070477047FEE7000081
:10118000104810B50E490160022141604907816095
:1011900000214FF44022C0E903124FF48012426153
:1011A000017641768176C17601774177FFF7F5F8D0
:1011B000002803D0BDE81040FEF7FCBF10BD0000C2
:1011C000006400401C00002030B585B00020009075
:1011D0000190029003901648816941F020018161DD
:1011E000816901F020010491816941F01001816160
:1011F000816901F010010491816941F0040181616C
:1012000080690C4D00F004004FF4807404900022BB
:1012100021462846FFF756FB012002210094CDE924
:101220000101039169462846FFF750FA05B030BD29
:1012300000100240001001400C4810B50A4901603E
:101240004FF4E1314160002181600C22C160C0E9AE
:1012500004128161C161FFF71DFF002803D0BDE8C2
:101260001040FEF7A7BF10BD003801404400002029
:10127000FEE7704770477047FFF730BB30B58FB05F
:1012800028216846FEF777FF14210AA8FEF773FFAE
:1012900001210804CDE900100024029402250491E4
:1012A000CDE90750C00009906846FFF79FFC0F206A
:1012B000CDE90A056802CDE90C4002210AA80E9486
:1012C000FFF7A4FB0FB030BD704710B5406A002196
:1012D000C185C184FFF72EFE10BD0168CA6822F4E3
:1012E0009072CA6001684A6922F001024A612021B5
:1012F00080F83A10704710B590F83A10222901D0C2
:10130000022010BD82684FF480539A4201D10169D6
:1013100021B1816A9A421BD04AB10AE00268816A0F
:101320005268C2F308020A80816A891C08E00269D7
:1013300072B10268526802F07F020A70816A491C29
:101340008162C18D491E0904090CC18503D016E0D4
:1013500002685268F1E70168CA6822F02002CA6098
:101360000168CA6822F48072CA6001684A6922F082
:1013700001024A61202180F83A10FFF7FDFE0020AB
:1013800010BD000070B5044600680169E26821F4F0
:101390004051114301612169A06808436169084314
:1013A0002168CA6841F20C639A430243CA6020680C
:1013B0004169A26921F44071114341611E492068CD
:1013C000884202D1FFF7C8FB01E0FFF7B5FB00EB55
:1013D000C00101EB0012606864218000B2FBF0F3F1
:1013E000B3FBF1F36FF018067343B2FBF0F5B2FBF9
:1013F000F0F605EB8305322303EB0515B5FBF1F59C
:10140000B6FBF1F605F0F00505EB0615B2FBF0F6BC
:10141000B2FBF0F0B0FBF1F06FF01802504306EBB6
:10142000800003EB0010B0FBF1F0216800F00F002A
:101430002844886070BD0000003801400148FFF773
:101440007BBD000044000020FEE70907090E0028CC
:1014500004DB00F1E02080F80014704700F00F007A
:1014600000F1E02080F8141D704702E008C8121F48
:1014700008C1002AFAD170477047002001E001C17D
:10148000121F002AFBD1704786B0FFF72FFAFFF733
:10149000F5FEFFF799FEFFF773FEFFF7CDFE012083
:1014A0000090002001900290039008200490FEF725
:1014B00083FE0748FFF734F84FF47A74054B69460A
:1014C0001A1D0348FEF78EFE2046FFF7EDF8F5E7FC
:1014D0001C000020000000200000000000000000B0
:1014E00001020304060708090000000001020304CA
:1014F00010150008000000201C0000006A140008FD
:101500002C1500081C0000206C0400007A14000850
:1015100000000000101200000000000001000000A8
:0C15200010000000000000000024F40097
:0400000508000131BD
:00000001FF
